:100000000C94B2020C94EA020C94EA020C94EA02F8
:100010000C94EA020C94EA020C94EA020C94EA02B0
:100020000C94EA020C94EA020C94C3270C949728CF
:100030000C9494220C94EA020C94EA020C94EA02C6
:100040000C94EA020C94EA020C94EA020C94EA0280
:100050000C94EA020C941B230C94EA020C94EA021E
:100060000C94EA020C94EA020C94EA020C94EA0260
:100070000C94EA020C94EA020C94EA020C94EA0250
:100080000C94EA020C94EA020C94EA020C94EA0240
:100090000C94EA020C94EA020C94EA020C94EA0230
:1000A0000C94EA020C94EA020C94EA0229001E0065
:1000B0001F0020002100220023002400250026002C
:1000C00027002D002E002A0000002B0014001A002B
:1000D0000800150017001C0018000C001200130087
:1000E0002F00300031004B003900040016000700DB
:1000F00009000A000B000D000E000F003300340051
:10010000000028004E00E1001D001B000600190041
:100110000500110010003600370038000000000014
:1001200052000000E0000000E20000002C00E300AC
:1001300001510000000090000000500051004F00ED
:100140004C0001003A003B003C003D003E003F00F7
:10015000400041004200430044004500010000000F
:10016000010000000000000000000000000000008E
:100170005200000000000000000000004A000100E2
:1001800000000000000000000000000050005100CE
:100190004F0000000000000001004D0001000000C1
:1001A000000000000000000000000000000000004F
:1001B000000000000000010000000100000001003C
:1001C000000001000100010000000000000000002C
:1001D00001000100010046001E0F0500047F3F1FC3
:1001E000643214643214783C1E1E140A052223253E
:1001F0002628292A2C2D2F3032333536383A3B3DEC
:100200003E4042434547494A4C4E50515355575939
:100210005A5C5E6062646668696B6D6F7173757756
:10022000797B7D7F81838587898A8C8E9092949655
:10023000989A9C9E9FA1A3A5A7A8AAACAEAFB1B364
:10024000B4B6B8B9BBBCBEBFC1C2C3C5C6C7C9CAB4
:10025000CBCCCDCED0D1D2D2D3D4D5D6D7D7D8D976
:10026000D9DADADBDBDBDCDCDCDCDCDDDDDDDDDCD4
:10027000DCDCDCDCDBDBDBDADAD9D9D8D7D7D6D5E6
:10028000D4D3D2D2D1D0CECDCCCBCAC9C7C6C5C3A8
:10029000C2C1BFBEBCBBB9B8B6B4B3B1AFAEACAAF5
:1002A000A8A7A5A3A19F9E9C9A98969492908E8CA5
:1002B0008A89878583817F7D7B79777573716F6D7F
:1002C0006B6968666462605E5C5A59575553515059
:1002D0004E4C4A4947454342403E3D3B3A3836350D
:1002E0003332302F2D2C2A292826252322FFAA7FBE
:1002F0005540000101010101010101010202020258
:1003000002020202020303030303030303040404BF
:100310000404040405050505050606060606070788
:1003200007070708080808090909090A0A0A0B0B40
:100330000B0C0C0C0D0D0D0E0E0E0F0F0F101011DF
:100340001111121213131414151516161717181865
:1003500019191A1A1B1B1C1D1D1E1E1F20202122CD
:1003600022232424252626272829292A2B2C2D2D13
:100370002E2F30313232333435363738393A3B3C30
:100380003D3E3F404142434445464748494A4C4D23
:100390004E4F50515354555658595A5B5D5E5F61EC
:1003A0006264656668696B6C6D6F7072737577787F
:1003B0007A7B7D7E8082838587888A8C8E8F9193DD
:1003C0009596989A9C9EA0A2A3A5A7A9ABADAFB104
:1003D000B3B5B7BABCBEC0C2C4C6C9CBCDCFD1D4E9
:1003E000D6D8DBDDDFE2E4E7E9EBEEF0F3F5F8FA8F
:1003F000FDFF1C03570049004E004700530020003A
:1004000048004F00540053005700410050000000C6
:100410000A0359004D0044004B0000000403090486
:1004200009023B00020100A0FA09040000010301D7
:100430000100092111010001224000070581030884
:10044000000109040100010300000009211101005D
:100450000122B600070582032000011201000200FC
:100460000000084D5975490100010200010501090C
:1004700002A10185020901A1000509190129081538
:100480000025019508750181020501093009311522
:1004900081257F95027508810609381581257F958C
:1004A0000175088106050C0A38021581257F950122
:1004B00075088106C0C005010980A10185031901E5
:1004C0002AB700150126B700950175108100C005F7
:1004D0000C0901A101850419012AA002150126A019
:1004E00002950175108100C005010906A10185066C
:1004F000050719E029E71500250195087501810216
:100500000507190029EF1500250195F075018102F5
:1005100005081901290595057501910295017503D5
:100520009101C005010906A101050719E029E71598
:100530000025019508750181029501750881010565
:1005400007190029FF150026FF0095067508810090
:100550000508190129059505750191029501750395
:100560009101C00011241FBECFEFDAE0DEBFCDBF86
:1005700004B603FE18C08091990590919A05A09148
:100580009B05B0919C058730904BA740B04B59F428
:100590001092990510929A0510929B0510929C0555
:1005A000E0E0F8E3099511E0A0E0B1E0EAE2F8E567
:1005B00002C005900D92A03DB107D9F725E0A0ED4E
:1005C000B1E001C01D92A939B207E1F70E9476128D
:1005D0000C94FD2B0C94000081E0089581E00895B7
:1005E0000E94EE02089508950E94F3020895A5E086
:1005F000B0E0EDEFF2E00C94F82A49835A83309191
:10060000D30189819A81311119C0662399F022237F
:1006100089F00E942809182F682F89819A810E94E9
:10062000040969817A81812F0E94B80F2596E3E041
:100630000C94142B0E941609182FF3CF0E9428093E
:1006400069817A81F1CFFC01262F4081518162813D
:10065000738184810E94F702089581E00895CF9309
:10066000DF93EC0160E00E942303BE010E94F402CC
:10067000DF91CF9108950E94F71008950E94FB101A
:10068000089508950E9453070E9441032FEF84E3C9
:100690009CE0215080409040E1F700C000000895A8
:1006A0000E9442030E943F2308950E9442030E9439
:1006B000632308950F931F93CF93DF938C0161E021
:1006C0000E942303EC01B8010E94F002811106C0D0
:1006D00080E0DF91CF911F910F910895B801CE0175
:1006E0000E94E11D8823A1F3B801CE010E94C5201C
:1006F000882371F3B801CE010E94FA1E882341F3CA
:10070000B801CE010E943720882311F3B801CE0131
:100710000E942F1C8823E1F2F8018281882361F076
:10072000CB35FDE5DF0701F158F4C115ECE5DE0737
:1007300091F0CF3DDC4591F0C8010E94EC02C9CF99
:10074000CD358DE5D80769F090F0C83ADD45A1F7C1
:100750000E945503BDCF0E945003BACF0E94EE0DF8
:10076000F7CF0E94280DE8CF0E94320DE5CF0E94FE
:10077000360DE2CF0E94702280E00E94161E0E9479
:10078000EC030E94951A08950E940D1D0E94F0032B
:100790000E946C1B0E947522089508950E94CD034B
:1007A000089581E00895CF93C82F0E94D103882334
:1007B00019F0C1FD03C0479ACF9108954798FCCF27
:1007C0003F9A479A0895CF93C82F0E94CE038C2F4B
:1007D0000E94D303CF91089580E00E94E30308951F
:1007E0000E9421210E94E30308950E9421219091FB
:1007F000D201981721F08093D2010E94E30308955B
:10080000ABE0B0E0E6E0F4E00C94F92A4F835887BF
:1008100069877A878B8761110E94730C1E821D8203
:1008200085E0FE013796DE01119601900D928A95C2
:10083000E1F78C819D81892B61F449815A816B811B
:100840007C818D819E810E949C0B2B96E2E00C9412
:10085000152B89819A8189238F3F79F3CE010196E7
:100860000E942D038111E9CFF0CFFC01808191819D
:100870000E9462090895CF93C82F8823B9F08CEFA6
:100880008C0F813AA8F46C2F80910401909105019E
:100890000E949621882329F08C2F0E94330C0E94FD
:1008A000940C8C2F0E942B0C0E94940CCF910895D5
:1008B00080E28C0F883048F4C77081E001C0880F57
:1008C000CA95EAF70E94560CEFCFEBE5EC0FE33048
:1008D00040F4F0E0E45AFE4F808190E00E945621FF
:1008E000E5CFE8E5EC0FE73150F4F0E0EE0FFF1F45
:1008F000E25DFE4F808191810E946C21D7CFCD3E79
:10090000A8F28C2F0E94FA120E94CD13CFCF882319
:1009100079F19CEF980F913A28F40E94330C0E94D1
:10092000940C089590E2980F983050F4877091E0FD
:1009300001C0990F8A95EAF7892F0E945C0CEFCFCE
:100940009BE5980F933028F490E080E00E945621B8
:10095000089598E5980F973128F490E080E00E9480
:100960006C2108958D3E20F00E9454130E94CD13F7
:1009700008951F93CF93DF93182FEB010E943B0440
:10098000209739F4812F0E948704DF91CF911F9126
:1009900008958FE99FE00197F1F700C000002197CB
:1009A000EFCF70E060E0893311F460E570E00E9401
:1009B000B9040895882321F00E94560C0E94940CDB
:1009C0000895882321F00E945C0C0E94940C0895E5
:1009D000B0E0A0E0EEEEF4E00C94F22A6C01D62F29
:1009E000C72FFC011281F580F2949FE0F9220E944A
:1009F0004C0CE82E8823B9F0E12E1123A1F08C2FA6
:100A0000807F803421F080E28D0F8830D0F080919B
:100A10007D0482FF16C082E00E94F70C0E944C0CFD
:100A200091E0E82EE926BC2EB2948FE0B822FBE0DC
:100A3000FB1508F468C0EB2DF0E0E150F44D0C9488
:100A4000B22AE12CF0CF0C2F0F70C07F11F002956D
:100A5000007F112399F0002359F080E28D0F883038
:100A600010F0D11107C0802F0E94560C0E94940CE8
:100A70008D2F41C0802F0E94660CF8CF8D2F0E94D1
:100A80008704002309F43FC080E28D0F883010F006
:100A9000D11104C0802F0E945C0C03C0802F0E94E3
:100AA0006C0C0E94940C2FC00C2F0F70C07FC032B2
:100AB00011F00295007FDD2381F0D13009F463C08D
:100AC000112309F46DC0FF2009F463C0F60185818C
:100AD00080FFCECF8F7085835CC080917D0482FDC6
:100AE00033C0112359F0002329F0802F0E94560CA7
:100AF0000E94940C80E00E943B0405C080E00E94AC
:100B000087040111C7CFEB2DE850FF0B349720F479
:100B10000E9421210E94E303EE2089F00E94480CEC
:100B200080FD0DC0F60112820E94420C0E940C084A
:100B3000C6010E9413070E94420C0E942E08CDB7E6
:100B4000DEB7E9E00C940E2B112389F0F11006C0FA
:100B50000E94760C802B0E94DA04D5CF21E0F2129D
:100B6000F7CF0E94760C802B0E947D0CCCCFF11029
:100B700006C00E948A0C802F0E94E104C4CF31E09D
:100B8000F31609F2F6CF112331F085E08F1508F442
:100B9000BACF802FE0CF94E09F1508F4B4CFEBCF0D
:100BA000FF2049F3D93349F4FFEF27EE33E0F1504A
:100BB00020403040E1F700C000008D2F0E948704E4
:100BC000A2CF8C2F86958695837069F0813009F0CD
:100BD0009ACF8D2F9C2F9370111102C090E080E06E
:100BE0000E946C2190CF8D2F9C2F9370111102C009
:100BF00090E080E00E94562186CF8D2F112329F0AE
:100C00000E94FA120E94CD137ECF0E945413FACF95
:100C10008C2F837009F041C0111175CF4D2F429573
:100C200046954770440F440F0D2F0F7010E030E0D1
:100C300020E0042E04C0000F111F221F331F0A944E
:100C4000D2F760E070E0CB01D4FF0FC06FE070E03E
:100C500080E090E004C0660F771F881F991F4A95B7
:100C6000D2F76095709580959095C695C695C3709E
:100C7000602B712B822B932BC23049F058F4C1307A
:100C800019F00E94B7073FCF0E94A4073CCF0E94F3
:100C9000CA0739CF0E94A10736CF8695112311F0DC
:100CA0008C2F8170882309F42ECF4D2F42954695C5
:100CB0004770440F440F0D2F0F7010E030E020E01C
:100CC000042E04C0000F111F221F331F0A94D2F7F5
:100CD00060E070E0CB01D4FF0FC06FE070E080E017
:100CE00090E004C0660F771F881F991F4A95D2F7BE
:100CF0006095709580959095C695C695C370602B4C
:100D0000712B822B932BC23049F058F4C13019F06B
:100D10000E948708F8CE0E947408F5CE0E949A08B7
:100D2000F2CE0E94E307EFCECF70112329F08C2F73
:100D30000E940C088D2F0FCF8D2F0E94E1048C2F65
:100D40000E942E08E0CED23F51F160F4D03FB9F0BE
:100D5000D13F81F0112309F449C0F11089CE8C2FC5
:100D60008F7121C0D33F11F1D43FA1F780917D0451
:100D700082FD26C08C2F8F71112311F314C0112313
:100D800049F084E08F1508F4BECE8C2F8F710E943D
:100D90005208B9CE95E09F1508F4B5CEF6CF8C2F4A
:100DA0008F711111CDCF0E940C08ADCE112329F007
:100DB0008C2F8F710E94F607A6CE0E94F007A3CE5B
:100DC000112349F0CF718C2F0E940C0863E08C2F07
:100DD0000E94D90C98CE81E00E94F70CE1E0EF155B
:100DE00008F091CE82E00E94F70C8DCEF110DACEA1
:100DF0008C2F8F71A5CF0F931F93CF93DF93EC01AF
:100E0000688179818A810E946D098C010E94AD08F8
:100E10000E94A007B801CE010E94E804DF91CF91A3
:100E20001F910F910895CF93DF93EC018B819C81EB
:100E3000892B29F08881998189238F3F51F4DF9193
:100E4000CF910895CE010E94FB06CE010E942F0390
:100E5000F6CFCE010E945A038111F4CF0E944C0CB0
:100E6000882369F38A81882351F380917D0482FF6E
:100E7000E6CF82E00E94F70CE2CF90E080E00E9493
:100E8000562190E080E00E946C210E94730C0E9429
:100E9000940C0E94E9130E94CD1308950E943B0C0C
:100EA0000E943D0708950E94630C0E944E0708951A
:100EB00092959F70963091F058F4925F9F709230A7
:100EC00058F4803F19F030F4883E30F481E0089502
:100ED0009A5FF4CF843FD1F380E00895883EB0F369
:100EE000813FD1F7F3CFFC01808191810E9462099B
:100EF0000E9458070895A5E0B0E0E1E8F7E00C94FF
:100F0000F92A2596E2E00C94152BA6E0B0E0EBE878
:100F1000F7E00C94F92A2696E2E00C94152B08953C
:100F20000E948F0708950E94900760930A027093B1
:100F30000B0280930C0290930D020E943D070895CE
:100F400008950E94930708950F931F9300910A023A
:100F500010910B0220910C0230910D02602B712B2D
:100F6000822B932B0E9493071F910F9108950F934B
:100F70001F9300910A0210910B0220910C023091F4
:100F80000D0260237123822393230E9493071F91F4
:100F90000F9108950F931F9300910A0210910B0275
:100FA00020910C0230910D02602771278227932730
:100FB0000E9493071F910F9108950E948F07089533
:100FC0000E94DD0708950E94E00760930602709377
:100FD000070280930802909309020E943D0708953A
:100FE00060E070E0CB010E94E30708950F931F9328
:100FF00041E050E060E070E08A019B0104C0000F16
:10100000111F221F331F8A95D2F7C901B8010E9410
:10101000E3071F910F9108950F931F9341E050E054
:1010200060E070E004C0440F551F661F771F8A956B
:10103000D2F78091060290910702A0910802B09128
:1010400009028A019B01082B192B2A2B3B2BC90172
:10105000B8010E94E3071F910F9108950F931F930A
:1010600041E050E060E070E004C0440F551F661F8F
:10107000771F8A95D2F7CB01BA016095709580955C
:10108000909500910602109107022091080230917C
:10109000090260237123822393230E94E3071F9197
:1010A0000F9108950F931F9341E050E060E070E0CE
:1010B00004C0440F551F661F771F8A95D2F7809191
:1010C000060290910702A0910802B09109028A01DC
:1010D0009B01082719272A273B27C901B8010E942D
:1010E000E3071F910F9108950F931F93009106023C
:1010F000109107022091080230910902602B712B98
:10110000822B932B0E94E3071F910F9108950F9359
:101110001F9300910602109107022091080230915E
:10112000090260237123822393230E94E3071F9106
:101130000F9108950F931F930091060210910702DB
:101140002091080230910902602771278227932796
:101150000E94E3071F910F9108950895262F27708D
:1011600091E001C0990F2A95EAF723E076956795FB
:101170002A95E1F725E0269FF001279FF00D112425
:10118000E40FF51F50E040E0682F70E08191DF012F
:1011900011979B01042E02C0369527950A94E2F719
:1011A000217021952827292328272C934F5F5F4FF3
:1011B0004530510559F70895A82FA77023E096955B
:1011C00087952A95E1F725E0289FF001299FF00DEA
:1011D0001124E60FF71F50E040E080E0219130E05D
:1011E0000A2E02C0369527950A94E2F7217033271C
:1011F000042E01C0220F0A94EAF7822B4F5F5F4F43
:101200004530510559F70895262F953070F48F30E9
:1012100060F4682F70E08FE0989F600D711D1124BD
:1012200044ED51E0822F0E94AE080895292F953099
:1012300068F48F3058F490E064ED71E03FE0239F54
:10124000800D911D11240E94DC08089580E008950E
:10125000B0E0A0E0EEE2F9E00C94F22A8C01C0903C
:101260000602D0900702E0900802F09009028091F7
:101270000A0290910B02A0910C02B0910D02C82AB3
:10128000D92AEA2AFB2ACFE1D0E0BC2ED701C60139
:101290000C2E04C0B695A795979587950A94D2F71A
:1012A00080FD09C0219788F7B12C8B2DCDB7DEB713
:1012B000E9E00C940E2BB8018C2F0E94D30F0197FC
:1012C00089F3F3CFCF93DF93EC010E942809BE018D
:1012D0000E94D30FDF91CF9108951F93CF93DF9397
:1012E000EB019091D301992339F0CB010E9462095F
:1012F000DF91CF911F910895882369F0CB010E945F
:101300002809182F682FCE010E940409BE01812FE1
:101310000E94D30FEDCFCB010E941609182FF6CFF4
:101320001F93CF93DF93C0910E0216E080910F02BE
:101330008C1304C0DF91CF911F910895D0E01C9FC2
:10134000F0011D9FF00D1124E05FFD4F40815181A0
:1013500062817381848195810E9485072196C7707F
:10136000E5CF40914002509141026091420270915C
:10137000430280914402909145020E94850708959E
:101380001F93CF93DF9380914502807F09F049C07E
:1013900080914202882309F444C080910E02C091DA
:1013A0000F026091400270914102A0914302B091FE
:1013B0004402D62FD72316E0C81799F190E0109772
:1013C00011F0DF3F19F401968770F6CF189F900156
:1013D000199F300D1124F901E05FFD4F4181471342
:1013E000F2CF40814613EFCF42814111ECCF4381D0
:1013F00054814A1B5B0B483C510528F780914502FC
:101400008F70806180934502F901EB5EFD4F808112
:101410008F708061808380E492E00E9413070E94B5
:101420009009DF91CF911F910895A1E1B0E0EBE128
:10143000FAE00C94F12A8C0185E0F801DE011D969A
:1014400001900D928A95E1F7F801E28080E4C82EC0
:1014500082E0D82E609143027091440261157105BB
:1014600009F44EC19091400220914102892F8223BC
:101470008F3F09F445C140815181A380B480F09031
:101480004202F501E61BF70BFF2009F4EAC0809148
:101490004502382F307FE83CF10508F0A3C0311138
:1014A0006DC0FE2C251316C0941314C0E11012C099
:1014B0008F708061809345020E94B109C6010E942D
:1014C000130780914502F80185838F2D6196EAE02C
:1014D0000C940D2BA114B10429F0842F85238F3F88
:1014E00009F027C180E0F82FF170DF2E80FF3CC0AB
:1014F00080910E0220910F0236E0821315C04D87B5
:101500005E878D859E850E946209292F22952F7006
:101510002230F0F0243018F59F70F1F0F801958139
:10152000907FD1F4D12C1EC090E0389FF001399FFC
:10153000F00D1124E05FFD4F6181651306C06081ED
:10154000641303C06281E6120FC001968770D5CF85
:101550009F7011F0882331F3805E883018F3C80142
:101560000E941307FD2CB1CFEE2009F4AECF80917D
:101570004502816080934502F12CA7CF251306C058
:10158000941304C0F801EE2009F487C0C8010E943A
:101590007307882319F1EE2009F18091450280320A
:1015A00070F0209140023091410238872F831986D4
:1015B000BB86AA868C87CE0107960E94130786E019
:1015C000F801A0E4B2E001900D928A95E1F70E9443
:1015D000C0090E94B109FF24F39477CFC8010E948B
:1015E0001307F9CF311113C07A2DB98AA88A6E2D4D
:1015F00089890E947B0780E492E00E94130786E0BD
:10160000F60111928A95E9F70E94B109B5CF251329
:101610000FC094130DC0E1100BC0F8018583C80101
:101620000E94130786E0F60111928A95E9F74DCFE3
:10163000C8010E947307882389F2EE2079F2809115
:101640004502803208F4BBCF209140023091410224
:101650003A8329831B82BD82AC828E83CE010196A0
:10166000ACCFE83CF10508F03EC0FE2CEE2009F4BA
:10167000B5CF25132AC0941328C08091450280FD60
:101680001BC0982F907FC1F0F8018583903F31F007
:10169000982F907F905F8F70892B8583C8010E945F
:1016A000130786E0F801A0E4B2E001900D928A955C
:1016B000E1F70E94B10909CF86E0F801A0E4B2E0A9
:1016C00001900D928A95E1F700CFC8010E9473073F
:1016D000811175CF80914502816080934502C801D8
:1016E0000E941307F2CE7A2DB98AA88A6E2D8989B5
:1016F0000E947B0786E0F60111928A95E9F7D9CF1F
:10170000EE2009F46BCFC8010E947307F82E8823DE
:1017100009F464CF86E0F801A0E4B2E001900D92F4
:101720008A95E1F780E492E00E9435040E94C009A6
:10173000C0CF81E08E25D7CEACE0B0E0E2EAFBE09E
:101740000C94F82A4F83588769877A878B879C8700
:10175000CE0107960E94150A882369F08A859B8529
:10176000892B39F04F815885842F85238F3F09F0CD
:101770006BC016E05FC086E0FE013796DE01119671
:1017800001900D928A95E1F78A859B85892B89F3D3
:1017900088859F8189238F3F61F320910F0230E07C
:1017A000C90101968770992740910E0248171906C2
:1017B00071F40E94530710920F0210920E0286E0FD
:1017C000E0E4F2E0DF011D928A95E9F7D2CF96E0DE
:1017D000929FD001939FB00D1124A05FBD4FFE01D9
:1017E000319601900D929A95E1F780930F020E9435
:1017F0009009BFCF819FC0011124805F9D4F0E943F
:10180000150A8823E9F0E0910E021E9FF0011124D1
:10181000E05FFD4F408151816281738184819581B8
:101820000E94850780910E0290E0019687709927AB
:1018300080930E0280910E0290910F028913DACFED
:101840002C96E3E00C94142B69857A858B859C8516
:101850000E9485078ECF682F809104019091050129
:101860000E9416220895682F80910401909105012D
:101870000E942422089580910401909105010E9404
:101880003222089580916602859585958595089503
:10189000809166028770089590916602977081E04A
:1018A00009F480E008958091890208959091890259
:1018B000892B8093890208958095909189029823BD
:1018C0009093890208951092890208959091880258
:1018D000892B80938802089580959091880298239F
:1018E000909388020895109288020895809167026B
:1018F000089508950E94790C089590917D0492FFB7
:1019000008C090916702981721F0809367020E94A7
:101910007A0C089580916702882329F0109267025B
:1019200080E00E947A0C0895CF93DF93E091040148
:10193000F0910501809189028083E0910401F0918A
:101940000501808190918802892B808390916702A4
:10195000992381F0E0910401F09105018081892BA8
:10196000808380910401909105010E948221811160
:101970000E948A0CC0910401D091050140E250E020
:1019800066E472E0CE010E94892B892B59F080E237
:10199000FE01A6E4B2E001900D928A95E1F7CE0136
:1019A0000E942E21DF91CF91089508950E94D50CB9
:1019B000089590917D0492FF11C098E0899F900155
:1019C0001124622B609366020E940C0880916602CB
:1019D0008595859585950E94D60C08950E940C08E2
:1019E00008951092660280E00E94D60C08959091AE
:1019F00066028095892380936602282F277091F4D0
:101A0000282F082E000C330B9217130659F09091D3
:101A10007D0492FF07C08595859585950E942E08C7
:101A20000E94F10C089590917D0492FB222720F9E9
:101A3000281769F080FB92F990937D0480917C04D3
:101A400090917D040E94640D82E00E94F70C08953D
:101A500080917D0482FB882780F991E089270E948C
:101A6000130D089581E00E94130D089580E00E94F7
:101A7000130D08956FEF7FEF90E080E00E94C82B78
:101A8000089590E080E00E94A42B21E0883E9E4FC4
:101A900009F020E0822F089582E090E00E94962BCA
:101AA000089583E090E00E94962B0895CF9384E000
:101AB00090E00E94962BC82F82E290E00E94962B25
:101AC000982F8C2FCF910895CF93C92F682F84E042
:101AD00090E00E94AA2B6C2F82E290E00E94AA2B39
:101AE000CF910895AB01BC018FE090E00E94BC2B28
:101AF0000895AB01BC0183E190E00E94BC2B0895E6
:101B000060E070E0CB010E94790D089560E070E024
:101B1000CB010E94720D0E94800D089568EE7EEF49
:101B200090E080E00E94C82B60E082E090E00E949C
:101B3000AA2B60E083E090E00E94AA2B10920A0298
:101B400010920B0210920C0210920D0260E084E0E1
:101B500090E00E94AA2B64E082E290E00E94AA2B0F
:101B600060E085E090E00E94AA2B60E086E090E0D3
:101B70000E94AA2B6FEF87E090E00E94AA2B40E022
:101B800050E0BA0188E090E00E94BC2B60E08DE05C
:101B900090E00E94AA2B40E050E0BA0188E190E07A
:101BA0000E94BC2B60E087E190E00E94AA2B40E0FD
:101BB00050E0BA018CE190E00E94BC2B70E060E044
:101BC00080E290E00E94C82B40E050E0BA0188E13A
:101BD00090E00E94BC2B0E94860D08950E948E0DFD
:101BE0000895682F8EE090E00E94AA2B08950E942D
:101BF0000023609398027093990280939A029093C5
:101C00009B02609394027093950280939602909346
:101C100097020895089508950E940B0E089508955F
:101C20000E940F0E089582EB90E10E9417210E94FE
:101C30000A0E0E940C0E089581E008950E941C0E69
:101C40000895089508950E94210E0E94220E08957D
:101C50000E94D1100E94E0030E94BD1E08950E94C0
:101C6000EB220E94C4110E94280E0E940D1D0E94AA
:101C7000301B0E94100E0895AAE0B0E0E2E4FEE0FE
:101C80000C94EC2A0E94DA11A82E81110E94F70D03
:101C90003AE8832E32E0932E10E000E0502E802FA1
:101CA0000E94FE106C01F401619071904F01681662
:101CB000790609F443C080919C0281FD0E940711BE
:101CC000B12CEE24E394F12C6C247D24C3018E21ED
:101CD0009F21892B69F10E941E0E8823B1F0BE82DC
:101CE0005F82CE20DF2081E0C114D10409F480E0BE
:101CF00088870E94F4228160782F9A8789874E8195
:101D00005F8168858A850E940004000F111FF80119
:101D1000E657FD4F80819181E826F926F182E08225
:101D200081E0A11001C080E02A96EFE00C94082B1E
:101D3000B394EE0CFF1CFFE0BF12C8CF0F5F1F4F24
:101D40000530110509F0AACF8FEF89838A831B82A2
:101D50000E94F4228160782F9D838C8349815A816F
:101D60006B818D810E940004DBCF0E943C0E0E949B
:101D7000761B0E94BC1E0E940B140E94F50308955E
:101D8000CF93DF930E94D80FEC01811521E59207D4
:101D900008F042C0811530E5930708F09DC0883EE9
:101DA000910530F5803E910508F092C0883A910582
:101DB00088F4853A910508F084C08130910509F4D2
:101DC00087C0009709F484C0049708F081C0D0E070
:101DD000C0E07EC08F3B9105D0F7C85AD0E0CC0F51
:101DE000DD1FC15ADE4F0990D881C02DD46470C068
:101DF0008115904250F4C11581E0D80708F068C001
:101E0000CD3ED10520F3D06563C0C11590E4D9075C
:101E1000F0F2DF70D06A5CC0811525E5920700F50D
:101E2000811534E5930708F08BC0811543E59407CD
:101E300008F073C0C11582E5D80708F469C0CE0167
:101E40008370992721E030E002C0220F331F8A956A
:101E5000E2F7C695C69580E2C89FE001112454C000
:101E6000C11599E5D907A8F4C11528E5D20708F0EE
:101E70006CC0C11536E5D30708F0A9CF8C2F0E949E
:101E80006F10C82FD0E0DC2FCC27CC27DF71D062B9
:101E90001FC0C1154AE5D40708F45CC0CE019056B6
:101EA0008115904208F093CF8D2F8F710E946F1093
:101EB00090E0982F882788279F719C012C2BE9019F
:101EC000E6CFC55AD0E0C357DE4FC881D0E0D0641A
:101ED000CE01DF91CF910895E4E096958795EA953C
:101EE000E1F783702C2F26952695237040E2249FDE
:101EF00090011124382B8C2F8370C1E0D0E002C0F8
:101F0000CC0FDD1F8A95E2F7C22BD32BDC68E0CF24
:101F1000DC2FCC27C16FD06ADBCF8370992721E0FB
:101F200030E002C0220F331F8A95E2F7C695C695AE
:101F300090E2C99FE0011124C22BD32BDA68C8CFED
:101F4000D82FCC27C46FD06AC3CFDC2FCC27C06F6B
:101F5000D06ABECF8C2F8F700E946F1034E0D69560
:101F6000C7953A95E1F7CF709C2FEC01D069B0CFBF
:101F7000972F7530A8F46F3098F470E02FE0929F9F
:101F8000600D711D1124FB019BE4899FE00DF11D83
:101F90001124EE0FFF1FE455FF4F85919491089592
:101FA00080E090E008950E94B80F0E94C00E08954E
:101FB00082389105B1F1B0F48133910509F475C00F
:101FC00048F48932910509F469C08A32910509F40F
:101FD00073C008958533910509F459C0893391057B
:101FE00001F10895833E9105A9F138F4803E9105F1
:101FF000F9F0823E910549F10895863E9105A9F1D7
:10200000873E9105C9F1843E910519F520917D0423
:1020100021FF1FC080917C0484FD14C087EE90E0F6
:10202000089520917C042370A1F080EE90E0089543
:1020300020917C0420FD47C030917D0430FF09C011
:1020400024FF44C090E080E004C020917C0422FD85
:10205000F7CF089520917C0422FD3BC030917D0490
:1020600030FDE3CF24FFF5CFEDCF20917C0423FF9B
:10207000F0CF24FDE7CFD2CF20917C0423FD2CC0EC
:1020800030917D0431FFEECF84EE90E008952091F1
:102090007C0425FFDECF89E290E0089520917C0446
:1020A00025FFD7CF85E390E0089520917C0426FF9B
:1020B000D0CF8AE290E0089520917C0426FFC9CF1A
:1020C00081E390E0089589E390E0089583EE90E045
:1020D000089582EE90E0089586EE90E00895909144
:1020E0007C0492FF06C0282F28712830F9F4877FDE
:1020F000846093FF06C0282F28712831F1F4877E71
:10210000846120917D0420FF06C0382F387138305B
:10211000D9F4877F816021FF06C0282F28712831DC
:10212000D1F4877E816194FD877E0895282F2471E4
:102130002430F9F68B7F8860DCCF282F247124317E
:1021400001F78B7E8861DDCF382F3171313019F77F
:102150008E7F8860E0CF282F2171213121F78E7E7C
:102160008861E1CF80E008950E943A0D08950E94B1
:10217000DA112FEF86E791E0215080409040E1F79F
:1021800000C000000E94DA1180E00E94FE1080FF73
:1021900004C00E94B4100E943F2308950E94B7100B
:1021A00008950E94410D811102C00E94EE0D0E940F
:1021B0004C0D80939C020E94560D90937D04809359
:1021C0007C040E94CE100E94510D682F70E090E0B8
:1021D00080E00E94A1076091060270910702809141
:1021E0000802909109020E94E007089508950E9454
:1021F000F610089508950E94FA100895E82FF0E06F
:10220000EE0FFF1FE857FB4F8081918108950895DD
:1022100080EA8A95F1F7089500C008950E94081198
:102220000895F894E82FE295EF70F0E031A1282F9F
:102230002F7081E090E001C0880F2A95EAF7982F6F
:102240009095932391A392A1892B82A378940895CA
:102250000F931F93CF93DF93C0E9D1E089918F3F14
:1022600011F00E94111181E0CF39D807B9F7CFE9F9
:10227000D1E004EA11E089918F3F11F00E94111121
:102280000C171D07C1F7DF91CF911F910F91089592
:102290008F929F92BF92CF92DF92EF92FF920F9315
:1022A0001F93CF93DF93D82EE92EF62E8A01C62FE7
:1022B000D0E0C057DE4F28812F3F09F453C0F89477
:1022C000E22FE295EF70F0E031A12F7081E090E015
:1022D00001C0880F2A95EAF7932F982B91A392A11A
:1022E0008095892382A378940E940C118FE9882E0F
:1022F00081E0982EED2DFE2DBF01665F7F4FE12C12
:102300006801C094D094D401BD904D018191919108
:10231000AF0142505109BFEFBB1681F12B2D229521
:102320002F7030E0D90190962C9130E0BB2DBF701A
:1023300002C035952795BA95E2F720FD1FC0802B86
:10234000912BDA018D939C93EE24E3946E177F0713
:10235000D1F688818F3F11F00E9411116E2D8F2DC3
:102360000E940E11DF91CF911F910F91FF90EF907E
:10237000DF90CF90BF909F908F9008958C219D21EA
:10238000DA018D939C93E2CF0E9428118AE0E8E85D
:10239000F4E0DF01982F1D929A95E9F7EEE7F4E05B
:1023A000DF011D928A95E9F785E00E942F120E94B5
:1023B0003B030895CF92DF92FF920F931F93CF9329
:1023C000DF93CDB7DEB72A970FB6F894DEBF0FBE06
:1023D000CDBF8E010F5F1F4F8AE0F80111928A95E1
:1023E000E9F7F12CCC24C394D12CA6016F2DC801A0
:1023F0000E944811F394CC0CDD1CFFE0FF12F5CFD6
:102400004AE050E0B8018EE794E00E94892BFF2457
:10241000F394009709F4F12C892B41F08AE0F8013C
:10242000AEE7B4E001900D928A95E1F72F2D45E0DB
:1024300068E874E08EE794E00E9430120E943E0348
:102440008F2D2A960FB6F894DEBF0FBECDBFDF9159
:10245000CF911F910F91FF90DF90CF900895089535
:10246000FF920F931F93CF93DF93F82E092F162F10
:10247000D72FC42F222349F081E080939F020E942E
:10248000F42290939E0280939D0280919F02882364
:10249000A1F080919D0290919E020E940C230597CD
:1024A00060F0EF2DF02FA12FBD2F90E080E0D0E065
:1024B0008C179D073CF010929F02CDB7DEB7E5E088
:1024C0000C94122B219131912D933D930196F0CFD5
:1024D0000E9419250E942F0E0E94262508950E9411
:1024E0002B250E94B50E0E94452508950E948D223D
:1024F0000E94FF240E94130E0E9468120E946F1215
:102500000E94230EFBCF8091A60280FF0DC0609138
:102510000B0170E0660F771F6038710570F561156B
:10252000710569F1862F089581FF07C060910B0145
:1025300084E0689FB0011124EFCF60910B0182FD10
:102540000AC08091A5028823A9F020910A01609118
:102550000B01821710F088E0ECCF869FC001112498
:1025600033E0880F991F3A95E1F7622F70E00E94DF
:102570007C2AD2CF68E070E0D5CF8FE7089581E064
:1025800008958091A60280FF0CC06091070170E061
:1025900075956795759567956115710549F1862F54
:1025A000089581FF06C06091070170E075956795F9
:1025B000F3CF6091070182FD0BC09091A402992393
:1025C000A1F06091060180910701961738F0682FFD
:1025D00070E06038710500F38FE70895899FC001AE
:1025E000112470E00E947C2AF4CF61E070E0D7CF24
:1025F00081E008958D3E31F40E948312819580938D
:10260000AA0208958E3E19F40E948312F8CF8F3EDD
:1026100031F40E94831281958093A9020895803F2E
:1026200019F40E948312F8CF893F29F40E94C11245
:102630008093AB0208958A3F21F40E94C1128195D4
:10264000F7CF8B3F31F40E94C11281958093AC0289
:1026500008958C3F19F40E94C112F8CF9FE0980FA3
:10266000983070F4815F990B21E030E001C0220FB7
:102670008A95EAF78091A802822B8093A802089598
:102680008D3F31F48091A60281608093A602089567
:102690008E3F21F48091A6028260F7CF8F3FB9F779
:1026A0008091A6028460F1CF4091A9028D3E59F439
:1026B0008091AA0287FF0DC01092AA0241110BC09F
:1026C0001092A50208C08E3E81F48091AA021816CD
:1026D0009CF3442381F08091AB029091AC02892B52
:1026E00009F05AC01092A40208958F3E49F447FFA2
:1026F000F0CF1092A9028091AA028111ECCFE0CF15
:10270000803F19F41416ACF3E4CF9091AB02893FEB
:1027100029F41916F4F61092AB02DBCF8A3F19F4B4
:1027200097FFD7CFF8CF9091AC028B3F29F497FF5A
:10273000D0CF1092AC02CDCF8C3F19F41916CCF348
:10274000C8CF9FE0980F983090F4815F990B21E0FB
:1027500030E0B90102C0660F771F8A95E2F7CB011E
:1027600080959091A80289238093A802B2CF8D3FD3
:1027700031F48091A6028E7F8093A602AACF8E3F6D
:1027800021F48091A6028D7FF7CF8F3F09F0A1CF72
:102790008091A6028B7FF0CF08950E94F4229C01C5
:1027A0009091A9028091AA02982B21F03093A30264
:1027B0002093A2029091AB028091AC02982B21F061
:1027C0003093A1022093A00287EA92E00E94482160
:1027D000089586E0E7EAF2E0DF011D928A95E9F7C5
:1027E0001092A5021092A4021092A6020895FC0174
:1027F000828181110EC0838181110BC0848181117E
:1028000008C091E08581811101C090E0892F81701D
:10281000089581E0FCCFA6E0B0E0E1E1F4E10C94A2
:10282000F82A86E0E7EAF2E0DE01119601900D92C7
:102830008A95E1F71092A9021092AA021092AB02B7
:102840001092AC028B819C81892B89F08091A2022D
:102850009091A3020E940C23AC019091A5029923B0
:10286000C9F180910C018417150608F440C08D81D0
:102870009E81892B91F08091A0029091A1020E94EB
:102880000C23AC019091A402992309F471C08091AA
:1028900008018417150608F479C0BE016F5F7F4FE9
:1028A00087EA92E00E944422811105C087EA92E003
:1028B0000E94F71381110E94CD1386E0FE0131962C
:1028C000A7EAB2E001900D928A95E1F72696E3E03F
:1028D0000C94142B20910D018AE0289F9001112463
:1028E0002417350720F69F5F9093A50202C09F3FF3
:1028F000D1F71B81112359F00E9483129FEF11160B
:102900000CF491E0899F802D11248093A9021C81F1
:10291000112359F00E9483129FEF11160CF491E0DD
:10292000899F802D11248093AA023091A90233231C
:1029300009F49DCF2091AA02222309F498CF45EBF8
:102940003403C0011124992359F09093A90245EB57
:10295000240390011124332339F03093AA0287CF46
:1029600081E08093A902F3CF81E08093AA027FCF18
:10297000209109018AE0289F90011124241735072E
:1029800008F08BCF9F5F9093A40202C09F3FD1F7C6
:102990001D81112359F00E94C1129FEF11160CF4F2
:1029A00091E0899F802D11248093AB021E81112319
:1029B00059F00E94C1129FEF11160CF491E0899F0B
:1029C000802D11248093AC023091AB02332309F4A3
:1029D00064CF2091AC02222309F45FCF45EB34038E
:1029E000C0011124992359F09093AB0245EB2403C5
:1029F00090011124332339F03093AC024ECF81E0A3
:102A00008093AB02F3CF81E08093AC0246CFEF928C
:102A1000FF920F931F93CF93DF93EB01E82FD11118
:102A20000EC0442321F0F0E0EE50FD4FE4916E2FF4
:102A30007E2F8E2FCDB7DEB7E6E00C94112B0D2F35
:102A400010E0282F30E0442329F02E503D4FF901AB
:102A5000249130E0F6E0CF9FC0011124EFEFF0E0C9
:102A6000BF010E94682AAB018C2F90E0880F991F4C
:102A7000A5E5A49FB001A59F700D1124861B970B9F
:102A8000982F990F980FBF01601B710B629FD001A7
:102A9000639FB00D729FB00D11248B2F9D9FB001CD
:102AA0001124672F7727EF01C61BD70BBE01629F4A
:102AB000E001639FD00D729FD00D11247F01E91AB0
:102AC000F108E09EB001E19E700DF09E700D1124A2
:102AD000672F7727E61BF70BE29F8001E39F100D1E
:102AE000F29F100D1124E12F722F4230510599F001
:102AF00048F44115510569F04130510581F0EB2F43
:102B00008D2F07C04430510569F080F046305105E3
:102B1000B1F76E2F8FCFE22F7B2F812FFACFE22FCD
:102B20007D2FF7CFEB2F822F712FF3CF7B2F822FAB
:102B3000ED2FEFCF41E00E940715089508950E9400
:102B40009A150895CF93DF93762FE901682F842F8C
:102B50000E949F15798368838A83DF91CF910895BE
:102B6000413A08F040EA0E94A2150895809192042B
:102B7000982F9E7F61F4817082608093920480918F
:102B80009504813A18F080EA80939504089586357B
:102B9000B0F381708465F1CF88E090E00E949E2BB5
:102BA0000895CF92DF92EF92FF926B017C010E9419
:102BB000B615B701A60188E090E00E94BC2BFF90FB
:102BC000EF90DF90CF900895E2E9F4E083E0808316
:102BD00011828FEF828380EA838314826081718106
:102BE000828193810E94D11508958091920480FF83
:102BF00002C08695089580E00895909196049330E0
:102C000018F49F5F90939604882351F0609192048A
:102C10007091930480919404909195040E94D11531
:102C2000089581E00E94FD150895909196049923DE
:102C300019F0915090939604882351F0609192047A
:102C40007091930480919404909195040E94D11501
:102C5000089581E00E941516089570E00E94CE1E2E
:102C60000895609112018091920480FF0BC08091C1
:102C7000110123E0829FC001112489569B4F0E94BD
:102C80002D160895809113019091140123E0829FE5
:102C9000F0011124E956FB4F891748F71182108281
:102CA00012828F5F3396F8CF9091920490FF0EC0FE
:102CB000909113012091140133E0939FF0011124AE
:102CC000E956FB4F921718F00E9431160895818340
:102CD000608342839F5F3396F5CFA3E0B0E0E3E7E4
:102CE000F6E10C94F92A9091920490FF0AC09E019B
:102CF0002F5F3F4F0E94B0154B8169818A810E94EE
:102D000054162396E2E00C94152BCF93DF93EC013D
:102D1000EC81F0E0E351FE4F4491E2E9F4E062819E
:102D200081810E946D168C818F5F8C83DF91CF91A2
:102D30000895CF93DF93EC01E2E9F4E043816281EF
:102D40008C810E946D168C818F5F8C83DF91CF9177
:102D50000895A3E0B0E0EFEAF6E10C94F72A8C01C5
:102D60008091AD0281110AC09E012F5F3F4F40EA62
:102D70006FEF0E94B0158A818093AD02F8016481E3
:102D8000613069F08091AD0240E0662361F040E07F
:102D9000623011F44091AD0280E060E004C06091C7
:102DA000AD0240E080E00E945416F801848190E07A
:102DB000019663E070E00E947C2A84832396E4E01D
:102DC0000C94132BA3E0B0E0E8EEF6E10C94F22AA9
:102DD000082FD62EE42EC22E9091920490FF29C087
:102DE000E92FE695AE2FB0E0AC55BE4F8C918093A5
:102DF00049049E7F923009F59E012F5F3F4F802F3F
:102E00000E94B0154B8169818A810E9454160093FB
:102E10009304D0929404E0929504CC2051F06091F8
:102E200092047091930480919404909195040E946F
:102E3000D1152396E9E00C940E2B823019F4E09022
:102E40009504E5CF863019F400919304E0CF8930E2
:102E5000D9F38931E1F6E9516E2F6170B62EE6950E
:102E6000F0E0E351FD4F1491F12C60911501F6163D
:102E700018F00E943116CBCFF19EC001112470E0F2
:102E80000E94682A802FB11014C0860F2091130170
:102E9000622F6F0D7727771F9B01220F331F260F9D
:102EA000371F29563B4F4E2D6D2D0E94B015F394C0
:102EB000DCCF861BEBCFE2E9F4E09181282F438140
:102EC000628188E0890F0E94E216089581E00E94E5
:102ED0005B170895E2E9F4E09181282F4381628134
:102EE00088EF890F0E94E216089581E00E946A1718
:102EF0000895E2E9F4E0628128E0620F08F46FEFE0
:102F0000282F438181810E94E216089581E00E946A
:102F100079170895E2E9F4E0628128E0621B08F481
:102F200060E0282F438181810E94E216089581E0AC
:102F30000E948A170895E2E9F4E0438128E0420FF5
:102F400008F44FEF282F628181810E94E2160895D4
:102F500081E00E949B170895E2E9F4E0438128E0B4
:102F6000421B08F440E0282F628181810E94E21612
:102F7000089581E00E94AC17089520E00E94E216B7
:102F80000895EF92FF921F93CF93DF93EC0110E02F
:102F9000EE24EA94F12C60911501161770F00E944E
:102FA00031169A818C8190FF27C08F5F8C83DF91CF
:102FB000CF911F91FF90EF90089520911301422F20
:102FC000410F5527551FCA019A01220F331F280FA1
:102FD000391F29563B4F70E0C7010E947C2A962F6B
:102FE0008C814091950460919404199F800D112467
:102FF0000E94B0151F5FCFCF8150D8CFB0E0A0E0C6
:10300000E4E0F8E10C94F12AFC0182810FEF80FFEB
:1030100001E010E040E5A42E80911501181798F00A
:103020000E9431168091AF02013009F04FC081112A
:1030300002C08091150181508093AF02CDB7DEB7F9
:10304000EAE00C940D2BC0911301C12ED12CCC0DB4
:10305000DD2DD11DCE01880F991FC80FD91FC9566C
:10306000DB4F198218821A8234E0E32EF12CB12C46
:103070008091AF028B0D81351CF16A2D0E945A2A76
:10308000892F082E000C990BC816D90691F480914F
:1030900095048E9DA0018F9D500D11245595479547
:1030A000559547959E0160919404809193040E94E8
:1030B000B015B00EF1E0EF1AF108D1F61F5FACCFFA
:1030C00087FFDFCF90911501890FDBCF90E001964C
:1030D0006091150170E00E947C2AAECF0F931F9380
:1030E000CF93DF93809113019091140123E0829F8D
:1030F000F0011124E956FB4F891740F1C0E0D3E0FD
:1031000060911501C61740F10E94311620910F0100
:103110008091AE02820F8093AE0290911001920FC7
:1031200090931001191654F4082E000C990B40913D
:1031300015014150550B841795071CF021952093DC
:103140000F01DF91CF911F910F910895118210828D
:1031500012828F5F3396D0CF0C2F10E070E0C80141
:103160000E947C2A20911301820F482F50E0209169
:10317000AE02022E000C330B02171307BCF0209195
:103180001001022E000C330B201731077CF08D9FAD
:103190009001112429563B4F40919504609194046D
:1031A000809193040E94B015CF5FAACFFA01EE0F71
:1031B000FF1FE40FF51FE956FB4F118210821282A8
:1031C000F3CFB0E0A0E0E7EEF8E10C94EF2AEC01D9
:1031D0004C81042F10E09801D8010E94C02A9B0165
:1031E000AC010E94D62A4B015C01E0E2F0E0E01B5A
:1031F000F10BA5E5B0E0AC019B010E94D62A6B0162
:103200007C019F01DF010E94B82A9B01AC010E9452
:10321000E12A9B01AC01280D391D4A1D5B1DC70128
:10322000B6010E94902AF22E822F90E039E23F15DB
:1032300020F143E0249F9001112435952795122F0A
:10324000109500E085E5E82EEF188091150108172C
:1032500018F10E9431169C8181E0992319F0903277
:1032600019F48FEF80930E0180910E01890F8C83EA
:10327000CDB7DEB7ECE00C940B2B25E530E0B901BF
:10328000681B790B9B01220F331F260F371F37FF57
:10329000D4CF2F5F3F4FD1CF8E2D01FD8F2D2091A9
:1032A0001301622F600F7727771F9B01220F331FB7
:1032B000260F371F29563B4F412F609194040E94DF
:1032C000B0150F5FC2CF0F931F93CF93DF93EC0125
:1032D00010E000E0909115019017110609F06CF4D0
:1032E0000E9431168C8190E00196817099278C8321
:1032F000DF91CF911F910F91089520911301A801A3
:10330000420F511D9A01220F331F240F351F2956DA
:103310003B4F4C8160919404809193049695901753
:10332000110651F04CF0442349F0409195040E945D
:10333000B0150F5F1F4FCECF4423B9F340E0F7CF56
:10334000B0E0A0E0E6EAF9E10C94EB2AFC0162802F
:10335000448081E08483EDEEF1E07490ECE6F2E0ED
:10336000E491812C75E0972EF2E0CF2EDD24D394EA
:10337000AA24AA94B12C55245A94E7190E2F10E0D0
:1033800080911501881638F00E943116CDB7DEB74E
:10339000E0E10C94072BE82CF12C82E0861568F014
:1033A0009E9CF0019F9CF00D1124E055FD4F8091F3
:1033B00093048083809194048183411023C09E9C58
:1033C000F0019F9CF00D1124E055FD4F13821282F5
:1033D00020911301C701820F911D9C01220F331F01
:1033E000280F391F29563B4F9E9CF0019F9CF00DE2
:1033F0001124E055FD4F4281618180810E94B0150A
:103400008394BECF9E9CE0019F9CD00D1124C0559B
:10341000DD4F8B818823E9F081508B83859DC0012E
:1034200011246C8170E00E94682AFB01FF27E351A0
:10343000FE4F8491E82FE719E59DC0011124B801E2
:103440000E94682A80919504689FB00111247A83B4
:10345000BFCF0E946C2B20919504269521582C9D5E
:10346000A0012D9D500D1124452F55278417950738
:103470000CF0AECF82E0861588F40E946C2BB5016B
:103480000E947C2A88830E946C2B209194042695AC
:10349000622F70E00E947C2A280F29839E9CF001F5
:1034A0009F9CF00D1124E055FD4F128280919504F0
:1034B000893C58F088EC9E9CF0019F9CF00D1124F3
:1034C000E055FD4F8483838383CF8431A0F784E16B
:1034D000F2CFE2E9F4E080818E7F808360817181A8
:1034E000828193810E94D11510924A042FEF80E7C8
:1034F00092E0215080409040E1F700C000000E941F
:1035000031160895E2E9F4E080818E7F8083109285
:103510004A042FEF80E792E0215080409040E1F78D
:1035200000C000000E943116089510924A04809154
:10353000470481110AC081E080934704809192047E
:103540008170809346040E94821A089560919204CB
:10355000669570E04BE050E086E191E00E947C2BA4
:10356000892B19F481E080934A040E94F4229093FD
:1035700041048093400408959091920490FF2BC0E1
:103580009170811129C0926090939204662351F04A
:1035900060919204709193048091940490919504A9
:1035A0000E94D11560919204669570E04BE050E066
:1035B00086E191E00E947C2B892BA9F010924A04AD
:1035C00081E080934304409195046091940480913C
:1035D00093040E94BD1708958B3210F09465D4CFE8
:1035E000880F982BD1CF0E94A61AEACF682F90910E
:1035F0009204969581E0890F8B3208F081E00E9459
:10360000BC1A089581E00E94F61A0895682F9091DF
:10361000920496958FEF890F09F48AE20E94BC1AF2
:10362000089581E00E94061B089561E00E94BC1A83
:103630000895E2E9F4E080818160808386950E94AC
:10364000151B08958091920480FF03C00E94691A9F
:1036500008950E94191B089560E00E94BC1A089505
:103660008091480481112EC00E94410D811104C037
:103670000E94EE0D0E94E4150E94CC156093920406
:103680007093930480939404909395046E7F61F4F7
:103690000E94E4150E94CC156093920470939304E9
:1036A00080939404909395040E94B61510924A0456
:1036B0008091920480FF03C086950E942C1B81E0BC
:1036C000809348040895E2E9F4E08081816080837A
:1036D00086950E942C1B0895109247048091460401
:1036E00081110E94631B0E94A61A08950F931F93D5
:1036F000CF93DF9380914A048823B9F180914904E4
:10370000E0919204E695E81BE0934204823091F543
:10371000F0E0E751FE4FE491CE2FD0E005E816E14E
:1037200080914304882361F0109243040E94F422A4
:1037300090934104809340041092450410924404F5
:103740000E94F422E0914004F09141048E1B9F0BF3
:103750008F3F9F4750F4EC0FFD1FF0934104E0931F
:10376000400480E494E0F8010995DF91CF911F9126
:103770000F910895863049F4F0E0EA51FE4FE4914C
:10378000CE2FD0E009E916E1CBCF893051F4E69590
:10379000F0E0ED51FE4FE491CE2FD0E001EC17E1C7
:1037A000BFCF8F3051F4E695F0E0E052FE4FE49148
:1037B000CE2FD0E00EEF17E1B3CF853149F4F0E022
:1037C000E352FE4FE491CE2FD0E00EE618E1A8CFF1
:1037D000C8E2D0E001EE18E1883109F4A1CF8332CC
:1037E00039F4EBEDF1E0C591D49109EA16E198CFF7
:1037F000C4EFD1E003E619E1843209F491CFC0EDC2
:10380000D7E00EE915E1853209F08ACF8E2F63E00B
:103810000E944E2AE92FF0E0E852FE4FE491CE2FAD
:10382000D0E000EA19E17CCFFA01811101C0FB016F
:1038300009950895CF93DF93C82FD62F0E94F515D1
:103840008C1748F00E94F5158D1728F40E94021B72
:10385000DF91CF9108958C2F0E94151BF9CF1F93F4
:10386000CF93DF93EC01FB01128111111BC00E9469
:10387000530C8272CD3CFCE5DF0709F4A0C008F0D0
:1038800045C0C73CECE5DE0709F485C0F8F4C43C4C
:103890009CE5D90709F475C050F4C33CDC4509F434
:1038A0006DC011E0812FDF91CF911F910895C53C2C
:1038B0009CE5D90709F46AC045E757E166E677E178
:1038C000C63CDC4571F70E94141CECCFCA3CFCE5F9
:1038D000DF0709F46AC068F4C83CECE5DE0709F4C8
:1038E0005FC046E857E167E977E1C93CDC4559F339
:1038F000D8CFCB3C9CE5D90709F45CC049E256E13E
:1039000061E176E1CC3CDC45F1F2CBCFC23DFCE598
:10391000DF0709F463C098F4CF3C9CE5D90709F4AC
:1039200057C008F451C0C03DFCE5DF0709F453C09F
:10393000C13DDC4509F0B5CF6EE089E01CC0C53D56
:103940009CE5D90709F450C058F4C33DFCE5DF07F6
:1039500009F447C0C43DDC4509F0A3CF88E135C078
:10396000C63D9CE5D90709F442C06AE285E2CE353E
:10397000DD4509F096CF0E941A1C94CF0E94221BAD
:1039800091CF41E15BE162E07BE19DCF42E05BE111
:1039900061E17BE198CF46E657E165E777E193CFB8
:1039A00047E957E166E877E18ECF49EB57E168EAEE
:1039B00077E189CF48EA57E169EB77E184CF41E1CC
:1039C00056E169E276E17FCF81E00E94151B6ACF64
:1039D00065E082E0D0CF68E086E0CDCF64E18FE0A3
:1039E000CACF67E185E1C7CF62E289E1C4CF83E254
:1039F000ECCF86E090E00E94962B0895682F86E039
:103A000090E00E94AA2B0895E7E8F5E08081847099
:103A1000896280830E94FE1C08950E94410D8111DD
:103A200004C00E94EE0D0E94041D0E94F91C8093A8
:103A30008705803320F08770886280938705909196
:103A40008705892F817090FF04C0892F8695869500
:103A500086950E94161E089580918705982F969549
:103A600096959695953040F49F5F990F990F990F11
:103A70008770892B8093870580918705816080936B
:103A800087050E94FE1C8091870586958695869500
:103A90000E94161E089580918705982F987F79F0CF
:103AA000885080938705887F91E009F490E08091A9
:103AB000870590FB80F9809387050E94FE1C80910A
:103AC00087058695869586950E94161E0895809195
:103AD000870580FD13C0816080938705813019F4CC
:103AE00089E080938705809187050E94FE1C809164
:103AF00087058695869586950E94161E0895809165
:103B0000870580FF08C08E7F809387050E94FE1C7A
:103B100080E00E94161E08958091870580FF03C0F3
:103B20000E947F1D08950E94671D0895909187054A
:103B3000892F8695869586958F5F8F7197708630D1
:103B4000E0F4880F880F880F892B80938705809178
:103B50008705887F91E009F490E08091870590FBCC
:103B600080F9809387050E94FE1C809187058695C9
:103B7000869586950E94161E089590938705E7CF37
:103B8000863008F085E0909187059770282F220FE6
:103B9000220F220F922B90938705987F21E009F442
:103BA00020E09091870520FB90F9909387050E9473
:103BB000161E08950E94C01D809187050E94FE1C5C
:103BC00008959C01FB018281882349F12E3BFCE58D
:103BD0003F07C9F040F42C3BECE53E0769F02D3B74
:103BE0003C4579F00895203C9CE5390791F070F050
:103BF000213C3C4589F0089585E00E94DA1D80E073
:103C0000089580E0FACF0E944B1DF9CF0E942C1D31
:103C1000F6CF0E948C1DF3CF0E94961DF0CF81E05D
:103C20000895269A2E9808952E9808958F929F921F
:103C3000AF92BF92EF92FF920F931F93CF93DF93B8
:103C4000C82F8630C0F5811137C0809180008F7DEC
:103C5000809380000E94141EA0918600B09187007E
:103C60002C2F30E00E94C02A25E030E040E050E0F8
:103C70000E94902A89019A01809186009091870084
:103C80006CE070E00E94682A60177107D8F0C801E4
:103C900069E070E00E94682A70938B0060938A004C
:103CA000DF91CF911F910F91FF90EF90BF90AF9058
:103CB0009F908F900895C5E08091800080628093EE
:103CC0008000CACF8091860090918700E0908600A6
:103CD000F0908700E0918600F0918700C6E0D0E088
:103CE000BE010E94682A060F171F211D311D4801C1
:103CF000590185E0880C991CAA1CBB1C8A95D1F738
:103D0000C701BE010E94682A9F0150E040E0260FD3
:103D1000371F411D511DC501B4010E94902A490160
:103D20005A01E0918600F0918700CA01B9010E9412
:103D30003E2A9B01AC01DF010E94D62A9B01AC0107
:103D4000C501B4010E943E2A2FE09695879577958C
:103D500067952A95D1F7009186001091870030E091
:103D600020E0061717072807390708F095CF60915C
:103D700086007091870090CF08950E94111E82E204
:103D80008093800089E1809381008FEF9FEF909373
:103D90008700809386000E940D1D08956A9A4EB197
:103DA0004B7F5EB15460EFB7F8949B01220F331F35
:103DB000260F371F280F391F2817390741F4EFBF87
:103DC0008FE594E00197F1F700C000000895DC0151
:103DD0006D91CD0178E05EB9000000C067FF4EB97B
:103DE000660F000000C000C000C04EB900C07A9548
:103DF00091F7E2CFCF93DF93EC01FB01828188231F
:103E000009F433C1C430FDE5DF07C0F5CB3F9CE5C5
:103E1000D90730F49E0122503C4524313105B0F5DC
:103E20000E94560D90937D0480937C04C1318CE5F3
:103E3000D80709F4EEC008F069C0C930ECE5DE0728
:103E400009F4D5C0C8F5C5308CE5D80709F4C7C05A
:103E500000F5C330ECE5DE0709F4B9C008F0BBC0DB
:103E6000C230DC4509F4ADC080917C0490917D04A2
:103E70000E94640D0E94530780E008C0C236EDE541
:103E8000DE0771F2C63AFDE5DF0751F2DF91CF910F
:103E9000089580917C048062C7309CE5D90709F4BD
:103EA00093C080917C048061C830DC4508F48CC0EC
:103EB00080917C04806488C080917C048B7FCD30AD
:103EC000FCE5DF0709F480C098F480917C048E7FC4
:103ED000CB309CE5D90709F477C080917C048C60D5
:103EE000CC30DC4508F470C080917C048D7F6CC0C0
:103EF00080917C048F7ECF30FCE5DF0709F464C03D
:103F000008F47BC080917C048F7D5EC0CE3F9CE531
:103F1000D90709F47AC050F5C531FCE5DF0709F48B
:103F200086C098F480917C04837FC3319CE5D907D7
:103F300009F44AC008F471C00E94530790917C04B0
:103F4000892F97FB87F980583FC0CC3FFCE5DF07FE
:103F500009F449C008F055C080917D048160CB3FD1
:103F6000DC4509F081CF80937D047ECFC230EDE542
:103F7000DE0709F468C0A8F4C1158DE5D80709F477
:103F800052C080917D048360C130DD4560F3809133
:103F90007D04982F909591708E7F892B90FB81F9ED
:103FA000E2CFC236EDE5DE0709F451C0C63AFDE5C1
:103FB000DF0709F453C0C330DD4509F055CF80E079
:103FC00043C080917C04816080937C044DCF8091BC
:103FD0007C048260F9CF80917C048460F5CF80916D
:103FE0007C048860F1CF80917D048260BCCF0E9408
:103FF000530780917C048068E7CF80917C04877FA1
:10400000E3CF80917D048E7FAECF80917D048D7F44
:10401000AACF80917C048F7BD7CF0E9453078091D9
:104020007C048F77D1CF80917D048C7F9CCF809151
:104030007C0482FB992790F921E0922790FB82F97A
:1040400090FB83F9C1CF81E00E94F10D0DCF9091DB
:104050007C04892F8F7E94FF8061B6CF90917C0481
:10406000892F8E7F90FF8160AFCF81E00FCFCF93FC
:10407000DF93EB0186319C4511F50E94530C9A8128
:10408000992399F08A7A91E009F490E090934B0497
:10409000811109C089E20E942B0C0E94940C80E0DF
:1040A000DF91CF91089585E3F6CF80914B04811184
:1040B00004C089E20E94330CF0CF85E3FBCF81E09E
:1040C000EFCF0F931F93CF93DF93C42FD22FFC0119
:1040D00082818823C9F040934E040E94F422909379
:1040E0004D0480934C0480E28C0F883040F4C770FC
:1040F00081E001C0880FCA95EAF70E94DA04DF91D7
:10410000CF911F910F91089510914E04141332C056
:1041100080914C0490914D040E940C23883C9105A1
:1041200048F5C0E2CD0F1D17B9F080E2810F88304D
:1041300040F4177081E001C0880F1A95EAF70E94D9
:10414000E104C83048F481E09D2F977001C0880FCA
:104150009A95EAF70E94DA04802F0E94D104C830B1
:1041600070F6D77081E001C0880FDA95EAF70E94F7
:10417000E104C5CF80E28C0F883008F6C77081E07B
:1041800001C0880FCA95EAF7F2CF0F939C01CB01CB
:10419000243F4CE5340759F1A8F4293DFCE53F07DD
:1041A00001F12A3D4CE53407D1F1283D3C4591F41D
:1041B00006E221EE41EE68ED7CE50E94612080E0A0
:1041C0000F910895263FFCE53F07E9F0B0F0273F47
:1041D0003C45F9F0FC018281882339F110924E04AC
:1041E000EFCF07E225EE45EE69ED7CE5E6CF06E28E
:1041F00021EE40EE64EF7CE5E0CF07E225EE44EEF1
:1042000065EF7CE5DACF06E221EE42EE66EF7CE573
:10421000D4CF07E225EE46EE67EF7CE5CECF08E28D
:1042200021E045EE6AED7CE5C8CF81E0C9CF9093EF
:10423000D1018093D0010895909354048093530446
:104240000895E0915304F0915404309729F00190BF
:10425000F081E02D0995089580E00895E0915304E0
:10426000F0915404309799F020912D01222359F0B8
:1042700020917C0427FF07C0DC012C9111962C9320
:10428000119726E02C930280F381E02D0995089583
:10429000E0915304F0915404309739F022E0DC01AE
:1042A0002C930480F581E02D099508952091510407
:1042B000309152042817390771F09093520480937B
:1042C0005104E0915304F0915404309721F006809A
:1042D000F781E02D0995089520914F043091500405
:1042E0002817390771F09093500480934F04E091A0
:1042F0005304F0915404309721F00084F185E02DAF
:1043000009950895FC01329680912D01882321F0B2
:1043100080917C049EE187FF96E080E0915008F454
:10432000089521912223D1F38F5FF8CF662301F105
:1043300020912D012223F1F020917C0427FF1AC047
:10434000462F4695469546954E3190F4677021E08C
:1043500030E002C0220F331F6A95E2F7840F911DEF
:10436000FC01828190E02823392381E0232B69F42A
:1043700080E00895FC01329608962191261721F0DD
:10438000E817F907D1F7F4CF81E008959C01FC010B
:1043900032969FEF80E04191461751F09F3F19F40C
:1043A000411101C0982F8F5F8630A9F79F3F09F414
:1043B0000895290F311D97FD3A95F90162830895FB
:1043C000FC01329608962191261303C0DF01119754
:1043D0001C92E817F907B9F70895E62FE695E695D8
:1043E000E695EE3168F4E80FF92FF11D677021E0D2
:1043F00030E001C0220F6A95EAF78281822B828326
:104400000895E62FE695E695E695EE3170F4E80F0F
:10441000F92FF11D677021E030E001C0220F6A958D
:10442000EAF72095828128232283089520912D0187
:10443000222339F020917C0427FF03C00E94ED2144
:1044400008950E94C621089520912D01222339F05C
:1044500020917C0427FF03C00E94012208950E943E
:10446000E0210895FC01329680912D01882351F0BE
:1044700080917C0487FF06C08EE1DF011D928A9542
:10448000E9F7089586E0F9CF46E050E00E94892BD5
:1044900021E0892B09F420E0822F089508950E94DD
:1044A0004E220895811106C081E0809355040E9438
:1044B0004F22089582E0F9CF83E0809355040E9453
:1044C0004F2208950E945222089581E0809355045E
:1044D0000E944F2208950E9465220895089508952C
:1044E0000E946F220895089508950E946E220895F3
:1044F000CF930E9473220E94DA110E947422C0E0BE
:104500008C2F0E94FE10892B31F4CF5FC530C1F78C
:1045100080E0CF91089581E0FCCF85B7806885BFAA
:1045200085B7806885BF08951F921FB61F9211241A
:104530008F939F93AF93BF9380915604811113C0C3
:104540008091880590918905A0918A05B0918B058D
:104550004196A11DB11D8093880590938905A09374
:104560008A05B0938B05BF91AF919F918F911F905A
:104570001FBE1F90189580919005843031F10E94E4
:10458000BA031092560488E190E020E40FB6F89444
:10459000A895809360000FBE2093600083B7817F51
:1045A000846083BF83B7816083BF7894889583B725
:1045B0008E7F83BF0FB6F894A895809160008861C4
:1045C00080936000109260000FBE08950E94530710
:1045D0000E94C403089582E084BD93E095BD9AEFE4
:1045E00097BD80936E0008952FB7F8948091880549
:1045F00090918905A0918A05B0918B052FBF0895F0
:104600002FB7F894609188057091890580918A058B
:1046100090918B052FBF08959C014FB7F89480911E
:10462000880590918905A0918A05B0918B054FBFAF
:10463000821B930B089578941F921FB61F9211242A
:104640008F939F93AF93BF93809188059091890535
:10465000A0918A05B0918B050196A11DB11D809393
:10466000880590938905A0938A05B0938B05BF9127
:10467000AF919F918F911F901FBE1F90189581E061
:104680008093E00080E28093D8001092C9008FE10F
:104690009EE40197F1F700C0000087E090EBDC0199
:1046A0008093990590939A05A0939B05B0939C05E0
:1046B00088E19CE00FB6F894A895809360000FBE47
:1046C00090936000FFCF88E19CE00FB6F894A89526
:1046D000809360000FBE90936000FFCF80917A04BA
:1046E000089508959C0182E08093E9009FEF8091F6
:1046F000E800915085FD06C085ED8A95F1F7000030
:104700009111F5CF8091E80085FF0CC050E040E0AA
:1047100066E070E0C9010E94B7258091E8008E77BD
:104720008093E8000895CF93DF93EC0180912D01F1
:104730008823B1F180917C0487FF32C060E282E07F
:104740008093E9008FEF9091E800815095FD06C0BD
:1047500095ED9A95F1F700008111F5CF8091E80071
:1047600085FF1BC080912D0170E050E040E0811179
:1047700004C050E040E068E070E0CE010E94B72540
:104780008091E8008E778093E80080E2FE01AAE540
:10479000B4E001900D928A95E1F7DF91CF910895F1
:1047A00068E081E0CDCF8093570470935904609303
:1047B000580480919005843001F582E08093E900EF
:1047C0008FEF9091E800815095FD06C095ED9A9588
:1047D000F1F700008111F5CF8091E80085FF0DC051
:1047E00050E040E063E070E087E594E00E94B72588
:1047F0008091E8008E778093E8000895BC0184E002
:104800000E94D3230895BC0183E00E94D32308951E
:1048100080918F05811109C00E9447270E94A4271B
:104820008091E20084608093E200089510928F05E9
:1048300008950E946522089560918C0581E06111C0
:1048400001C080E00E945C2208959091900581E073
:10485000943009F080E060918C050E9462220895F6
:1048600042E061EC81E00E94C32642E261EC82E01A
:104870000E94C3269091900581E0943009F080E079
:1048800060918C050E945222089580919205833098
:1048900009F461C030F48130D1F1823009F49EC056
:1048A00008958A3009F48AC08B3009F46FC08930CA
:1048B00009F050C080919105813209F04BC0809180
:1048C000950590919605029708F044C08091E80004
:1048D000877F8093E8008091E80082FF37C0909145
:1048E000F3008091F200029731F48091F100813061
:1048F00011F0863021F48091F10080937A04809148
:10490000E8008B778093E8000E94F72623C080910F
:104910009105813AF9F48091E800877F8093E8005F
:104920008091950590919605892B61F460E28AE566
:1049300094E070E00E9406268091E8008B778093D7
:10494000E800089560E090E080E0F3CF809190056A
:104950008111C1CF089580919105813AD9F7809155
:10496000950590919605892BA9F78091E800877F9E
:104970008093E8008091E80080FFFCCF80912D01BA
:104980008093F1008091E8008E77BCCF80919105F3
:10499000813201F78091950590919605892BD1F68A
:1049A0008091E800877F8093E8000E94F72680913D
:1049B000930580932D010E945307089580919105DE
:1049C000813241F68091E800877F8093E8000E9461
:1049D000F7268091940580937B040895809191053A
:1049E000813A09F0B7CF8091E800877F8093E80093
:1049F0008091E80080FFFCCF80917B04C1CF84B719
:104A0000877F84BF0FB6F894A89580916000886175
:104A100080936000109260000FBE80E890E00FB6B7
:104A2000F89480936100909361000FBE0E946B2206
:104A300008950E9447270E94A427E2EEF0E08081BB
:104A40008460808378940E94232A089581E291E013
:104A50000E941C21089580919005853031F4809149
:104A60009005853019F00E94E62208950E94BB222D
:104A700080918E05882399F30E947822882379F308
:104A80000E94A1250E945307EACF08950E9449255C
:104A90000895292F33272330310519F168F4213087
:104AA000310509F444C02230310509F445C090E0D5
:104AB00080E030E020E025C02132310549F122328A
:104AC0003105A9F780E490E023E235E06115710536
:104AD000C1F086EB90E02DE634E06130710589F09D
:104AE000E6CF99278130910581F0009729F0029750
:104AF000F1F6E2EFF3E002C0ECE1F4E0849190E043
:104B00009F01FA01318320830895E0E1F4E0F6CFBC
:104B100089E090E022E334E06115710591F389E0CA
:104B200090E02BE434E06130710559F3C0CF82E1AD
:104B300090E02BE534E0E5CF8BE390E020E234E039
:104B4000E0CF80E189BD82E189BD09B400FEFDCFDF
:104B50008091D8008F7D8093D8008091E0008260A2
:104B60008093E0008091E00081FDFCCF0895AF923A
:104B7000BF92CF92DF92FF920F931F93CF93DF9359
:104B80006C01EB018A010E941627F82E811123C0C7
:104B90000115110539F0F80180819181C81BD90BED
:104BA000C80ED91EB12CA12C2097A9F08091E80045
:104BB00085FD22C08091E8008E778093E800011582
:104BC0001105A1F0F80180819181A80EB91EB18272
:104BD000A08285E0F82E8F2DDF91CF911F910F914C
:104BE000FF90DF90CF90BF90AF9008950E9416275E
:104BF0008823D1F2F82EEFCFF60181916F018093D7
:104C0000F1002197FFEFAF1ABF0ACECFFC018091D0
:104C100097059091980586179707A0F06115710583
:104C200029F49091E8009E779093E80090E0611558
:104C3000710551F4911108C08091E80082FF34C0E1
:104C400080E00895BC01F2CF809190058823C1F1E6
:104C50008530C1F18091E80083FD30C08091E8008B
:104C600082FDEACF8091E80080FFE1CF8091F300E0
:104C70002091F200382F6115710519F028303105A7
:104C800058F091E02830310509F090E02091E800DB
:104C90002E772093E800CBCF81918093F100615073
:104CA00071092F5F3F4FE7CF80919005882341F036
:104CB000853041F08091E80083FFBECF81E0089508
:104CC00082E0089583E00895FC018091970590911A
:104CD000980586179707A0F06115710529F4809152
:104CE000E8008E778093E80090E06115710551F43B
:104CF000911108C08091E80082FF35C080E00895DE
:104D0000BC01F2CF809190058823C9F18530C9F1AB
:104D10008091E80083FD31C08091E80082FDEACFF8
:104D20008091E80080FFE1CF8091F3002091F200B4
:104D3000382F6115710519F02830310558F091E0D0
:104D40002830310509F090E08091E8008E7780935B
:104D5000E800CBCF84918093F100319661507109C6
:104D60002F5F3F4FE6CF80919005882341F085303B
:104D700041F08091E80083FFBDCF81E0089582E09B
:104D8000089583E00895982F973028F08F708093CE
:104D9000E90081E008959093E900242F762F50E0F8
:104DA000981731F07091EC002091ED005091F000D7
:104DB00021FD02C09F5FE8CF3091EB003E7F309332
:104DC000EB003091ED003D7F3093ED003091EB0032
:104DD00031603093EB007093EC002093ED00509322
:104DE000F0002091EE0027FDE5CF80E0089580914E
:104DF000910587FF13C08091E80082FF06C0809173
:104E0000E8008B778093E80004C0809190058111C1
:104E1000F2CF0895809190058823D9F38091E8001E
:104E200080FFF8CF8091E8008E77ECCF2091E400EE
:104E30003091E50095E6A9012091EC00822F817068
:104E400020FF06C08091E80080FF06C080E0089542
:104E50002091E80022FD1AC080919005882389F0F6
:104E6000853089F08091EB0085FD0FC02091E40032
:104E70003091E50042175307F9F29150E1F684E0D2
:104E8000089582E0089583E0089581E008950E94E6
:104E9000B6270E94BE27E0EEF0E08081816080832B
:104EA000E8EDF0E080818F77808319BCA7EDB0E05A
:104EB0008C918E7F8C9380818F7E808310928F0562
:104EC00008950F931F93CF93DF930E94B6270E94FC
:104ED000BE27C8EDD0E088818F778883888180687D
:104EE000888388818F7D888319BC109290051092E9
:104EF0008C0510928E0510928D0500EE10E0F801E1
:104F000080818B7F808388818160888342E060E03C
:104F100080E00E94C326E1EEF0E080818E7F8083F6
:104F2000E2EEF0E080818160808380818860808310
:104F3000F80180818E7F8083888180618883DF9102
:104F4000CF911F910F910895E8EDF0E080818F7E61
:104F50008083E7EDF0E080818160808384E082BF20
:104F600081E080938F050E9461270895E8EDF0E0CD
:104F700080818E7F80831092E20008951092DA0083
:104F80001092E10008951F920F920FB60F92112414
:104F90002F933F934F935F936F937F938F939F9341
:104FA000AF93BF93EF93FF938091E10082FF0BC01B
:104FB0008091E20082FF07C08091E1008B7F8093A7
:104FC000E1000E94222A8091DA0080FF19C08091BE
:104FD000D80080FF15C08091DA008E7F8093DA00C0
:104FE0008091D90080FF96C080E189BD82E189BDB2
:104FF00009B400FEFDCF81E0809390050E94082453
:105000008091E10080FF19C08091E20080FF15C00F
:105010008091E2008E7F8093E2008091E2008061C7
:105020008093E2008091D80080628093D80019BC00
:1050300085E0809390050E941C248091E10084FF0C
:105040002BC08091E20084FF27C080E189BD82E10E
:1050500089BD89B5982F917080FFFBCF8091D800D2
:105060008F7D8093D8008091E1008F7E8093E10056
:105070008091E2008F7E8093E2008091E200816067
:105080008093E20080918C05882309F449C084E074
:10509000809390050E9425248091E10083FF29C020
:1050A0008091E20083FF25C08091E100877F80939B
:1050B000E10082E08093900510928C058091E100E0
:1050C0008E7F8093E1008091E2008E7F8093E200EA
:1050D0008091E20080618093E20042E060E080E045
:1050E0000E94C3268091F00088608093F0000E94A7
:1050F0001924FF91EF91BF91AF919F918F917F9173
:105100006F915F914F913F912F910F900FBE0F9034
:105110001F90189519BC109290050E94162470CF0C
:105120008091E30087FD93E090939005B3CF1F92A9
:105130000F920FB60F9211242F933F934F935F93CB
:105140006F937F938F939F93AF93BF93CF93DF938F
:10515000EF93FF93D091E900DF708091EC00C82FAE
:10516000C17080FDC0E81092E9008091F000877F57
:105170008093F00078940E94DB281092E9008091DF
:10518000F00088608093F000CD2BCF70C093E900D1
:10519000FF91EF91DF91CF91BF91AF919F918F914F
:1051A0007F916F915F914F913F912F910F900FBE23
:1051B0000F901F901895AAE2B0E0E1EEF8E20C948F
:1051C000F82A81E995E02091F100FC012193CF01BB
:1051D000F5E089399F07B9F70E9445248091E800DE
:1051E00083FF1EC180919105909192059A3008F03D
:1051F00017C1E92FF0E0E55FF34D0C94B22A803837
:1052000099F0823809F00CC1809195058F70873034
:1052100008F006C18093E9008091EB0085FB8827A8
:1052200080F91092E90006C080918D0590918E055D
:10523000911182609091E800977F9093E8008093AD
:10524000F1001092F1008091E8008E77E5C088238C
:1052500009F4D3C0823009F0E3C080919305811135
:10526000D6C0809195058F702FEF280F263008F05B
:10527000D7C08093E9002091EB0020FFC8C0933095
:1052800031F48091EB0080628093EB00C0C090917C
:10529000EB0090619093EB0021E030E001C0220F21
:1052A0008A95EAF72093EA001092EA008091EB00D9
:1052B0008860EACF8111B4C0109193051F77809167
:1052C000E3008078812B8093E3008091E800877F62
:1052D0008093E8000E94F7268091E80080FFFCCFD1
:1052E0008091E30080688093E30082E0111183E005
:1052F0008093900595C08058823008F091C08091CD
:105300009305909194058C3D23E09207A1F583E0ED
:105310008A838AE289834FB7F894DE01139620E0EE
:105320003EE051E2E32FF0E050935700E49120FF7C
:1053300003C0E295EF703F5FEF708E2F90E0EA3090
:10534000C0F0C7968D939D932F5F243159F74FBFBF
:105350008091E800877F8093E8006AE270E0CE01E8
:1053600001960E9406268091E8008B778093E800E2
:1053700057C0C096E7CF6091950570919605AE0134
:105380004F5F5F4F0E944625BC01892B09F448C03E
:105390009091E800977F9093E80089819A810E941C
:1053A0006426E1CF8038E1F58091E800877F809323
:1053B000E80080918C058093F10045CF811130C0C9
:1053C00090919305923060F58091E800877F8093FB
:1053D000E80090938C050E94F72680918C05882325
:1053E00011F084E005C08091E30087FDFACF81E0F1
:1053F000809390050E94302413C0809193058130E2
:1054000079F481E0933009F080E080938E0510926A
:10541000E9008091E800877F8093E8000E94F726EA
:105420008091E80083FF0AC08091E800877F809325
:10543000E8008091EB0080628093EB00AA96E3E0A5
:105440000C94142B0895CF93809190058823A1F09C
:10545000C091E900CF709091EC00892F817090FD90
:1054600080E8C82B1092E9008091E80083FD0E943B
:10547000DB28CF70C093E900CF910895DB018F93B3
:105480009F930E94D62ABF91AF91A29F800D911D3C
:10549000A39F900DB29F900D11240895991B79E060
:1054A00004C0991F961708F0961B881F7A95C9F7B4
:1054B0008095089587FB082E062687FD819567FD58
:1054C00061950E944E2A0EF4919507FC81950895EE
:1054D000AA1BBB1B51E107C0AA1FBB1FA617B7071A
:1054E00010F0A61BB70B881F991F5A95A9F7809536
:1054F0009095BC01CD01089597FB072E16F40094FA
:1055000007D077FD09D00E94682A07FC05D03EF439
:10551000909581959F4F0895709561957F4F08955F
:10552000A1E21A2EAA1BBB1BFD010DC0AA1FBB1FA7
:10553000EE1FFF1FA217B307E407F50720F0A21B19
:10554000B30BE40BF50B661F771F881F991F1A9486
:1055500069F760957095809590959B01AC01BD01B0
:10556000CF010895EE0FFF1F0590F491E02D0994EF
:105570000E94C02A332312F48A1B9B0B0C94D12A5D
:10558000A29FB001B39FC001A39F700D811D112484
:10559000911DB29F700D811D1124911D08950E94CF
:1055A000C02AB7FF0895821B930B08950E94C02A5A
:1055B000A59F900DB49F900DA49F800D911D112467
:1055C0000895B7FF0C94D62A0E94D62A821B930B0B
:1055D00008952F923F924F925F926F927F928F9297
:1055E0009F92AF92BF92CF92DF92EF92FF920F9372
:1055F0001F93CF93DF93CDB7DEB7CA1BDB0B0FB67C
:10560000F894DEBF0FBECDBF09942A883988488838
:105610005F846E847D848C849B84AA84B984C884CE
:10562000DF80EE80FD800C811B81AA81B981CE0FC5
:10563000D11D0FB6F894DEBF0FBECDBFED010895AA
:105640008F929F92AF92BF92CF92DF92EF92FF9292
:10565000CF93DF93EC01688179818A819B81611509
:1056600071058105910521F464E279ED8BE597E000
:105670002DE133EF41E050E00E94DE2B49015A0159
:105680009B01AC01A7EAB1E40E94D62A6B017C0120
:10569000ACEEB4EFA50194010E94E42ADC01CB0139
:1056A0008C0D9D1DAE1DBF1DB7FF03C00197A10945
:1056B000B04888839983AA83BB839F77DF91CF917A
:1056C000FF90EF90DF90CF90BF90AF909F908F9022
:1056D00008950E94202B089580E091E00E94202BE5
:1056E0000895B0E0A0E08093000190930101A093A1
:1056F0000201B09303010895FC014150504030F085
:1057000001900616D1F73197CF0108958827992780
:105710000895FB01DC0104C08D910190801921F4F2
:1057200041505040C8F7881B990B0895F999FECF56
:1057300092BD81BDF89A992780B50895A6E1B0E0A1
:1057400044E050E00C94D02BA8E1B0E042E050E0FF
:105750000C94D02B262FF999FECF92BD81BDF89ADB
:10576000019700B4021639F01FBA20BD0FB6F894A5
:10577000FA9AF99A0FBE08950396272F0E94AB2B31
:105780000E94AA2B252F0E94AB2B242F0C94AB2B0D
:105790000196272F0E94AB2B0C94AA2BDC01CB0186
:1057A000FC01F999FECF06C0F2BDE1BDF89A319631
:1057B00000B40D9241505040B8F70895052E97FB64
:1057C0001EF400940E94F52B57FD07D00E94902AEA
:1057D00007FC03D04EF40C94F52B50954095309572
:1057E00021953F4F4F4F5F4F08959095809570954D
:1057F00061957F4F8F4F9F4F0895F894FFCF2305FA
:10580000230554055405E105FD05830583050806B8
:105810009406A306A306FF282729102A2729102A61
:0A5820005A297B29102AD229DE291B
:10582A00010000006802280850011E0A1401010143
:10583A0002005000505001191A1B1C1D1E1F202166
:10584A00226E23932372230324FE23712301E20091
:10585A00E900EA00B500B600B700CD008301CC002C
:10586A008A019201940121022302240225022602BE
:10587A0027022A02B300B4006F007000818283E21B
:10588A0000E900EA00B500B600B700CD008301CCFC
:10589A00008A019201940121022302240225022690
:1058AA000227022A02B300B4006F007000818283CB
:1058BA00909192939594969734F7F6F5F4F1F03027
:1058CA0031323337000102020202060606090909CB
:1058DA000909090F0F0F0F0F0F15151518191919A7
:1058EA0019191919191919232425252525252500DA
:00000001FF
